{
  "_format": "hh-sol-artifact-1",
  "contractName": "AppointmentRegistry",
  "sourceName": "contracts/AppointmentRegistry.sol",
  "abi": [
    {
      "anonymous": false,
      "inputs": [
        {
          "indexed": true,
          "internalType": "string",
          "name": "appointmentId",
          "type": "string"
        },
        {
          "indexed": false,
          "internalType": "bytes32",
          "name": "dataHash",
          "type": "bytes32"
        },
        {
          "indexed": false,
          "internalType": "uint256",
          "name": "timestamp",
          "type": "uint256"
        },
        {
          "indexed": false,
          "internalType": "address",
          "name": "submittedBy",
          "type": "address"
        }
      ],
      "name": "AppointmentStored",
      "type": "event"
    },
    {
      "anonymous": false,
      "inputs": [
        {
          "indexed": true,
          "internalType": "string",
          "name": "appointmentId",
          "type": "string"
        },
        {
          "indexed": false,
          "internalType": "bytes32",
          "name": "oldHash",
          "type": "bytes32"
        },
        {
          "indexed": false,
          "internalType": "bytes32",
          "name": "newHash",
          "type": "bytes32"
        },
        {
          "indexed": false,
          "internalType": "uint256",
          "name": "timestamp",
          "type": "uint256"
        },
        {
          "indexed": false,
          "internalType": "address",
          "name": "submittedBy",
          "type": "address"
        }
      ],
      "name": "AppointmentUpdated",
      "type": "event"
    },
    {
      "inputs": [
        {
          "internalType": "string",
          "name": "appointmentId",
          "type": "string"
        }
      ],
      "name": "appointmentExists",
      "outputs": [
        {
          "internalType": "bool",
          "name": "",
          "type": "bool"
        }
      ],
      "stateMutability": "view",
      "type": "function"
    },
    {
      "inputs": [
        {
          "internalType": "string",
          "name": "appointmentId",
          "type": "string"
        }
      ],
      "name": "getAppointmentHistory",
      "outputs": [
        {
          "internalType": "bytes32[]",
          "name": "",
          "type": "bytes32[]"
        }
      ],
      "stateMutability": "view",
      "type": "function"
    },
    {
      "inputs": [
        {
          "internalType": "string",
          "name": "appointmentId",
          "type": "string"
        }
      ],
      "name": "getAppointmentRecord",
      "outputs": [
        {
          "internalType": "string",
          "name": "",
          "type": "string"
        },
        {
          "internalType": "bytes32",
          "name": "",
          "type": "bytes32"
        },
        {
          "internalType": "uint256",
          "name": "",
          "type": "uint256"
        },
        {
          "internalType": "address",
          "name": "",
          "type": "address"
        }
      ],
      "stateMutability": "view",
      "type": "function"
    },
    {
      "inputs": [
        {
          "internalType": "string",
          "name": "appointmentId",
          "type": "string"
        },
        {
          "internalType": "bytes32",
          "name": "dataHash",
          "type": "bytes32"
        }
      ],
      "name": "storeAppointmentHash",
      "outputs": [],
      "stateMutability": "nonpayable",
      "type": "function"
    },
    {
      "inputs": [
        {
          "internalType": "string",
          "name": "appointmentId",
          "type": "string"
        },
        {
          "internalType": "bytes32",
          "name": "newDataHash",
          "type": "bytes32"
        }
      ],
      "name": "updateAppointmentHash",
      "outputs": [],
      "stateMutability": "nonpayable",
      "type": "function"
    },
    {
      "inputs": [
        {
          "internalType": "string",
          "name": "appointmentId",
          "type": "string"
        },
        {
          "internalType": "bytes32",
          "name": "dataHash",
          "type": "bytes32"
        }
      ],
      "name": "verifyAppointmentHash",
      "outputs": [
        {
          "internalType": "bool",
          "name": "",
          "type": "bool"
        }
      ],
      "stateMutability": "view",
      "type": "function"
    }
  ],
  "bytecode": "0x608060405234801561001057600080fd5b50610c06806100206000396000f3fe608060405234801561001057600080fd5b50600436106100625760003560e01c80631c1674e8146100675780631e9624051461009057806329039d3a146100b35780633c4ee45d146100d65780634807c2ab146100e95780638abd68a8146100fe575b600080fd5b61007a6100753660046108fa565b610111565b6040516100879190610937565b60405180910390f35b6100a361009e3660046108fa565b6101d4565b604051610087949392919061099f565b6100c66100c13660046108fa565b61034a565b6040519015158152602001610087565b6100c66100e43660046109ef565b61037f565b6100fc6100f73660046109ef565b6103e7565b005b6100fc61010c3660046109ef565b61062d565b60606000826040516101239190610a34565b9081526040519081900360200190206003015460ff600160a01b909104166101665760405162461bcd60e51b815260040161015d90610a50565b60405180910390fd5b6001826040516101769190610a34565b90815260408051918290036020908101832080548083028501830190935282845291908301828280156101c857602002820191906000526020600020905b8154815260200190600101908083116101b4575b50505050509050919050565b6060600080600080856040516101ea9190610a34565b9081526040519081900360200190206003015460ff600160a01b909104166102245760405162461bcd60e51b815260040161015d90610a50565b600080866040516102359190610a34565b90815260200160405180910390206040518060a001604052908160008201805461025e90610a87565b80601f016020809104026020016040519081016040528092919081815260200182805461028a90610a87565b80156102d75780601f106102ac576101008083540402835291602001916102d7565b820191906000526020600020905b8154815290600101906020018083116102ba57829003601f168201915b5050509183525050600182015460208083019190915260028301546040808401919091526003909301546001600160a01b038116606080850191909152600160a01b90910460ff161515608090930192909252835190840151928401519390910151909991985091965090945092505050565b6000808260405161035b9190610a34565b9081526040519081900360200190206003015460ff600160a01b9091041692915050565b600080836040516103909190610a34565b9081526040519081900360200190206003015460ff600160a01b909104166103ba575060006103e1565b816000846040516103cb9190610a34565b9081526020016040518091039020600101541490505b92915050565b60008251116104385760405162461bcd60e51b815260206004820152601e60248201527f4170706f696e746d656e742049442063616e6e6f7420626520656d7074790000604482015260640161015d565b806104815760405162461bcd60e51b81526020600482015260196024820152784461746120686173682063616e6e6f7420626520656d70747960381b604482015260640161015d565b6000826040516104919190610a34565b9081526040519081900360200190206003015460ff600160a01b90910416156104fc5760405162461bcd60e51b815260206004820152601a60248201527f4170706f696e746d656e7420616c726561647920657869737473000000000000604482015260640161015d565b6040805160a081018252838152602081018390524281830152336060820152600160808201529051600090610532908590610a34565b9081526040519081900360200190208151819061054f9082610b10565b50602082015160018083019190915560408084015160028401556060840151600390930180546080909501511515600160a01b026001600160a81b03199095166001600160a01b03909416939093179390931790915590516105b2908490610a34565b908152604051908190036020908101822080546001810182556000918252919020018290556105e2908390610a34565b604080519182900382208383524260208401523383830152905190917f63b7e3d92aa2160877b916260394cda7b43d6cf2f2d6aa805627cb2574f0926f919081900360600190a25050565b600082511161067e5760405162461bcd60e51b815260206004820152601e60248201527f4170706f696e746d656e742049442063616e6e6f7420626520656d7074790000604482015260640161015d565b806106c75760405162461bcd60e51b81526020600482015260196024820152784461746120686173682063616e6e6f7420626520656d70747960381b604482015260640161015d565b6000826040516106d79190610a34565b9081526040519081900360200190206003015460ff600160a01b909104166107115760405162461bcd60e51b815260040161015d90610a50565b600080836040516107229190610a34565b9081526020016040518091039020600101549050816000846040516107479190610a34565b9081526020016040518091039020600101819055504260008460405161076d9190610a34565b908152602001604051809103902060020181905550336000846040516107939190610a34565b90815260405190819003602001812060030180546001600160a01b03939093166001600160a01b0319909316929092179091556001906107d4908590610a34565b90815260405190819003602090810182208054600181018255600091825291902001839055610804908490610a34565b60408051918290038220838352602083018590524283830152336060840152905190917ff35b828ce20a99ef79d03f335d6e9d1a7bbf56fa6b9595c7f94ba9c9717e71d6919081900360800190a2505050565b634e487b7160e01b600052604160045260246000fd5b600082601f83011261087e57600080fd5b813567ffffffffffffffff8082111561089957610899610857565b604051601f8301601f19908116603f011681019082821181831017156108c1576108c1610857565b816040528381528660208588010111156108da57600080fd5b836020870160208301376000602085830101528094505050505092915050565b60006020828403121561090c57600080fd5b813567ffffffffffffffff81111561092357600080fd5b61092f8482850161086d565b949350505050565b6020808252825182820181905260009190848201906040850190845b8181101561096f57835183529284019291840191600101610953565b50909695505050505050565b60005b8381101561099657818101518382015260200161097e565b50506000910152565b60808152600085518060808401526109be8160a0850160208a0161097b565b60208301959095525060408101929092526001600160a01b0316606082015260a0601f909201601f19160101919050565b60008060408385031215610a0257600080fd5b823567ffffffffffffffff811115610a1957600080fd5b610a258582860161086d565b95602094909401359450505050565b60008251610a4681846020870161097b565b9190910192915050565b6020808252601a908201527f4170706f696e746d656e7420646f6573206e6f74206578697374000000000000604082015260600190565b600181811c90821680610a9b57607f821691505b602082108103610abb57634e487b7160e01b600052602260045260246000fd5b50919050565b601f821115610b0b57600081815260208120601f850160051c81016020861015610ae85750805b601f850160051c820191505b81811015610b0757828155600101610af4565b5050505b505050565b815167ffffffffffffffff811115610b2a57610b2a610857565b610b3e81610b388454610a87565b84610ac1565b602080601f831160018114610b735760008415610b5b5750858301515b600019600386901b1c1916600185901b178555610b07565b600085815260208120601f198616915b82811015610ba257888601518255948401946001909101908401610b83565b5085821015610bc05787850151600019600388901b60f8161c191681555b5050505050600190811b0190555056fea264697066735822122054e849ece36f8dbfaa685cd03b6e3d59a61389fb7d0b70494f3c68c70c966a0d64736f6c63430008130033",
  "linkReferences": {},
  "deployedLinkReferences": {}
}